:100000000C947A000C9499000C9499000C9499002B
:100010000C9499000C9499000C9499000C949900FC
:100020000C9499000C9499000C9499000C949900EC
:100030000C9499000C9499000C9499000C949900DC
:100040000C9499000C9499000C9499000C949900CC
:100050000C9407010C9499000C9499000C9499004D
:100060000C9499000C9499000C9499000C949900AC
:100070000C9499000C9499000C9499000C9499009C
:100080000C9499000C9499000C9499000C9499008C
:100090000C9499000C9499000C9499000C9499007C
:1000A0000C9499000C9499000C9499000C9499006C
:1000B0000C9499000C9499000C9499000C9499005C
:1000C0000C9499000C9499000C9499000C9499004C
:1000D0000C9499000C9499000C9499000C9499003C
:1000E0000C94AD000C9499000C9499000C94990018
:1000F0000C94990011241FBECFEFCDBFDFE7DEBF08
:1001000010E4A0E0B0E4E8EFF3E000E00BBF02C0D1
:1001100007900D92AC31B107D9F722E4ACE1B0E41D
:1001200001C01D92AF31B207E1F70E949B000C9411
:10013000FA010C940000E0E2F4E0808181608083A9
:100140008481816084830E9438010E94670182E17A
:1001500090E40E9486017894FFCF1F920F920FB611
:100160000F9211240BB60F922F933F934F935F93EF
:100170006F937F938F939F93AF93BF93CF93DF93AF
:10018000EF93FF930E94A401E0911E40C1E0CE0FC7
:10019000C0931E40F0E0E15EFF4B8083811122C0DE
:1001A000D0E0AE016FE170E48FE191E40E94BA010A
:1001B000AE0160E070E08FE190E40E94C301109214
:1001C0001E4060E070E48FE191E40E94B601EC0112
:1001D00060E070E480E090E00E94B601BC01CE01D6
:1001E0000E94AB01FF91EF91DF91CF91BF91AF9151
:1001F0009F918F917F916F915F914F913F912F913F
:100200000F900BBE0F900FBE0F901F9018951F926E
:100210000F920FB60F9211240BB60F922F933F93AC
:100220004F935F936F937F938F939F93AF93BF93FE
:10023000EF93FF9382E090E40E947F010E946001AF
:1002400090E8909343090E947F01FF91EF91BF9145
:10025000AF919F918F917F916F915F914F913F915E
:100260002F910F900BBE0F900FBE0F901F901895FF
:10027000E0E0F4E080818C60808380818F7E8083E9
:1002800080818062808380818F7B808380818F7773
:10029000808385818460858384818860848385816F
:1002A00080688583E0E4F9E08081816280838181D8
:1002B00082688183828181688283838183830895B8
:1002C000809143098823E4F7809144090895E0E888
:1002D000F4E080818D7F8083808181608083E0E88D
:1002E000F8E083E896E08087918785818068858340
:1002F0008681806C8683878183608783089590914F
:10030000840895FFFCCF8093820808950F931F9374
:10031000CF93DF938C01C0E0D0E007C0F801EC0F71
:10032000FD1F80810E947F012196F801019000202D
:10033000E9F73197E01BF10BCE17DF0778F3DF9178
:10034000CF911F910F910895809184088823E4F73D
:1003500080918008089567E070E40E94CA01892BAB
:1003600021F48CE090E40E94860108954CE150E471
:100370000C94D301FB01DC0102C001900D924150AD
:100380005040D8F70895DC0101C06D9341505040B2
:10039000E0F70895FB01DC018D91019080190110B7
:1003A000D9F3990B0895FA01A191B081009719F43E
:1003B0001097E1F0CD01DC01CD010D90002011F48A
:1003C000C00113C0FB012191222319F02015D9F798
:1003D000F3CFFB012191201519F41E92119606C04E
:1003E0002223C1F70D900020A1F7D001FA01A193BB
:0803F000B0830895F894FFCFDB
:1003F800200071776572007561727400756172749E
:0C040800342073657269616C0D0A0000FD
:00000001FF
