:100000000C947A000C9499000C9499000C9499002B
:100010000C9499000C9499000C9499000C949900FC
:100020000C9499000C9499000C9499000C949900EC
:100030000C9499000C9499000C9499000C949900DC
:100040000C9499000C9499000C9499000C949900CC
:100050000C9499000C9499000C9499000C949900BC
:100060000C9499000C9499000C9499000C949900AC
:100070000C9499000C9499000C9499000C9499009C
:100080000C9499000C9499000C9499000C9499008C
:100090000C9499000C9499000C9499000C9499007C
:1000A0000C9499000C9499000C9499000C9499006C
:1000B0000C9499000C9499000C9499000C9499005C
:1000C0000C9499000C9499000C9499000C9499004C
:1000D0000C9499000C9499000C9499000C9499003C
:1000E0000C94C5000C9499000C9499000C94990000
:1000F0000C94990011241FBECFEFCDBFDFE7DEBF08
:1001000010E4A0E0B0E4E4E0F4E000E00BBF02C0E3
:1001100007900D92A831B107D9F722E4A8E1B0E425
:1001200001C01D92AE31B207E1F70E949B000C9412
:1001300000020C940000E0E0F4E080818C60808399
:10014000C0E4D4E0888180688883A0E6B4E08C9124
:1001500080618C93868184608683858188608583B5
:100160008E8180688E8316968C9116978061169684
:100170008C930E941F010E946D018FE090E40E9409
:100180008C0178940E943C01FDCF1F920F920FB614
:100190000F9211240BB60F922F933F934F935F93BF
:1001A0006F937F938F939F93AF93BF93CF93DF937F
:1001B000EF93FF930E94AA01E0911A40C1E0CE0F95
:1001C000C0931A40F0E0E55EFF4B8083811122C0AE
:1001D000D0E0AE016BE170E48BE191E40E94C001DC
:1001E000AE0160E070E08BE190E40E94C9011092E2
:1001F0001A4062E070E48BE191E40E94BC01EC01E2
:1002000062E070E480E090E00E94BC01BC01CE019D
:100210000E94B101FF91EF91DF91CF91BF91AF911A
:100220009F918F917F916F915F914F913F912F910E
:100230000F900BBE0F900FBE0F901F901895E0E02F
:10024000F4E080818061808380818F7D80838081E4
:1002500080648083808180688083E0E4F9E080812D
:1002600081628083818182688183828181688283C7
:1002700080818F7B8083089580E8809306041092AC
:100280004409809143098823E4F7E0E4F9E02481FC
:1002900020931D421482809143098823E4F7309112
:1002A000440980E88093050490910140292320931C
:1002B0001D4280910040832380931B4290E0982F41
:1002C0008827822B95958795959587959595879500
:1002D000959587950E9485010895E0E8F4E0808176
:1002E0008D7F8083808181608083E0E8F8E083E80F
:1002F00096E0808791878581806885838681806C80
:10030000868387818360878308959091840895FF11
:10031000FCCF8093820808950F931F93CF93DF93B0
:100320008C01C0E0D0E007C0F801EC0FFD1F808118
:100330000E9485012196F80101900020E9F731978C
:10034000E01BF10BCE17DF0778F3DF91CF911F9100
:100350000F910895809184088823E4F780918008A4
:10036000089564E070E40E94D001892B21F489E0B3
:1003700090E40E948C01089548E150E40C94D90166
:10038000FB01DC0102C001900D9241505040D8F7B2
:100390000895DC0101C06D9341505040E0F708958D
:1003A000FB01DC018D91019080190110D9F3990BAB
:1003B0000895FA01A191B081009719F41097E1F026
:1003C000CD01DC01CD010D90002011F4C00113C05E
:1003D000FB012191222319F02015D9F7F3CFFB015E
:1003E0002191201519F41E92119606C02223C1F7FF
:1003F0000D900020A1F7D001FA01A193B0830895D8
:04040000F894FFCF9E
:100404000FF020007561727400756172743420738A
:08041400657269616C0D0A00BC
:00000001FF
